{
	"contracts/function.sol": {
		"Function": {
			"abi": [
				{
					"inputs": [],
					"name": "addition",
					"outputs": [],
					"stateMutability": "pure",
					"type": "function"
				},
				{
					"inputs": [],
					"name": "changeState",
					"outputs": [],
					"stateMutability": "nonpayable",
					"type": "function"
				},
				{
					"inputs": [
						{
							"internalType": "uint256",
							"name": "a",
							"type": "uint256"
						},
						{
							"internalType": "uint256",
							"name": "b",
							"type": "uint256"
						}
					],
					"name": "div",
					"outputs": [
						{
							"internalType": "uint256",
							"name": "",
							"type": "uint256"
						}
					],
					"stateMutability": "pure",
					"type": "function"
				},
				{
					"inputs": [],
					"name": "multiplication",
					"outputs": [
						{
							"internalType": "uint256",
							"name": "",
							"type": "uint256"
						}
					],
					"stateMutability": "view",
					"type": "function"
				},
				{
					"inputs": [],
					"name": "randomValue",
					"outputs": [
						{
							"internalType": "uint256",
							"name": "",
							"type": "uint256"
						}
					],
					"stateMutability": "view",
					"type": "function"
				},
				{
					"inputs": [],
					"name": "substraction",
					"outputs": [
						{
							"internalType": "uint256",
							"name": "",
							"type": "uint256"
						}
					],
					"stateMutability": "pure",
					"type": "function"
				},
				{
					"inputs": [],
					"name": "value",
					"outputs": [
						{
							"internalType": "uint256",
							"name": "",
							"type": "uint256"
						}
					],
					"stateMutability": "view",
					"type": "function"
				}
			],
			"devdoc": {
				"kind": "dev",
				"methods": {},
				"version": 1
			},
			"evm": {
				"assembly": "    /* \"contracts/function.sol\":67:771  contract Function {... */\n  mstore(0x40, 0x80)\n    /* \"contracts/function.sol\":117:119  10 */\n  0x0a\n    /* \"contracts/function.sol\":105:119  uint num1 = 10 */\n  0x00\n  sstore\n    /* \"contracts/function.sol\":138:140  20 */\n  0x14\n    /* \"contracts/function.sol\":126:140  uint num2 = 20 */\n  0x01\n  sstore\n    /* \"contracts/function.sol\":167:169  10 */\n  0x0a\n    /* \"contracts/function.sol\":147:169  uint public value = 10 */\n  0x02\n  sstore\n    /* \"contracts/function.sol\":202:205  293 */\n  0x0125\n    /* \"contracts/function.sol\":176:205  uint public randomValue = 293 */\n  0x03\n  sstore\n    /* \"contracts/function.sol\":67:771  contract Function {... */\n  callvalue\n  dup1\n  iszero\n  tag_1\n  jumpi\n  0x00\n  dup1\n  revert\ntag_1:\n  pop\n  dataSize(sub_0)\n  dup1\n  dataOffset(sub_0)\n  0x00\n  codecopy\n  0x00\n  return\nstop\n\nsub_0: assembly {\n        /* \"contracts/function.sol\":67:771  contract Function {... */\n      mstore(0x40, 0x80)\n      callvalue\n      dup1\n      iszero\n      tag_1\n      jumpi\n      0x00\n      dup1\n      revert\n    tag_1:\n      pop\n      jumpi(tag_2, lt(calldatasize, 0x04))\n      shr(0xe0, calldataload(0x00))\n      dup1\n      0x8412e667\n      gt\n      tag_10\n      jumpi\n      dup1\n      0x8412e667\n      eq\n      tag_6\n      jumpi\n      dup1\n      0xa391c15b\n      eq\n      tag_7\n      jumpi\n      dup1\n      0xb6367398\n      eq\n      tag_8\n      jumpi\n      dup1\n      0xec597128\n      eq\n      tag_9\n      jumpi\n      jump(tag_2)\n    tag_10:\n      dup1\n      0x011285da\n      eq\n      tag_3\n      jumpi\n      dup1\n      0x276801ec\n      eq\n      tag_4\n      jumpi\n      dup1\n      0x3fa4f245\n      eq\n      tag_5\n      jumpi\n    tag_2:\n      0x00\n      dup1\n      revert\n        /* \"contracts/function.sol\":466:556  function multiplication () public view  returns (uint){... */\n    tag_3:\n      tag_11\n      tag_12\n      jump\t// in\n    tag_11:\n      mload(0x40)\n      tag_13\n      swap2\n      swap1\n      tag_14\n      jump\t// in\n    tag_13:\n      mload(0x40)\n      dup1\n      swap2\n      sub\n      swap1\n      return\n        /* \"contracts/function.sol\":176:205  uint public randomValue = 293 */\n    tag_4:\n      tag_15\n      tag_16\n      jump\t// in\n    tag_15:\n      mload(0x40)\n      tag_17\n      swap2\n      swap1\n      tag_14\n      jump\t// in\n    tag_17:\n      mload(0x40)\n      dup1\n      swap2\n      sub\n      swap1\n      return\n        /* \"contracts/function.sol\":147:169  uint public value = 10 */\n    tag_5:\n      tag_18\n      tag_19\n      jump\t// in\n    tag_18:\n      mload(0x40)\n      tag_20\n      swap2\n      swap1\n      tag_14\n      jump\t// in\n    tag_20:\n      mload(0x40)\n      dup1\n      swap2\n      sub\n      swap1\n      return\n        /* \"contracts/function.sol\":658:768  function changeState ()public  {... */\n    tag_6:\n      tag_21\n      tag_22\n      jump\t// in\n    tag_21:\n      stop\n        /* \"contracts/function.sol\":565:650  function div(uint a , uint b)public pure returns (uint){... */\n    tag_7:\n      tag_23\n      0x04\n      dup1\n      calldatasize\n      sub\n      dup2\n      add\n      swap1\n      tag_24\n      swap2\n      swap1\n      tag_25\n      jump\t// in\n    tag_24:\n      tag_26\n      jump\t// in\n    tag_23:\n      mload(0x40)\n      tag_27\n      swap2\n      swap1\n      tag_14\n      jump\t// in\n    tag_27:\n      mload(0x40)\n      dup1\n      swap2\n      sub\n      swap1\n      return\n        /* \"contracts/function.sol\":339:458  function substraction() public pure returns(uint){... */\n    tag_8:\n      tag_28\n      tag_29\n      jump\t// in\n    tag_28:\n      mload(0x40)\n      tag_30\n      swap2\n      swap1\n      tag_14\n      jump\t// in\n    tag_30:\n      mload(0x40)\n      dup1\n      swap2\n      sub\n      swap1\n      return\n        /* \"contracts/function.sol\":214:331  function addition() public pure {... */\n    tag_9:\n      tag_31\n      tag_32\n      jump\t// in\n    tag_31:\n      stop\n        /* \"contracts/function.sol\":466:556  function multiplication () public view  returns (uint){... */\n    tag_12:\n        /* \"contracts/function.sol\":515:519  uint */\n      0x00\n        /* \"contracts/function.sol\":544:548  num2 */\n      sload(0x01)\n        /* \"contracts/function.sol\":539:543  num1 */\n      sload(0x00)\n        /* \"contracts/function.sol\":539:548  num1*num2 */\n      tag_34\n      swap2\n      swap1\n      tag_35\n      jump\t// in\n    tag_34:\n        /* \"contracts/function.sol\":531:548  return  num1*num2 */\n      swap1\n      pop\n        /* \"contracts/function.sol\":466:556  function multiplication () public view  returns (uint){... */\n      swap1\n      jump\t// out\n        /* \"contracts/function.sol\":176:205  uint public randomValue = 293 */\n    tag_16:\n      sload(0x03)\n      dup2\n      jump\t// out\n        /* \"contracts/function.sol\":147:169  uint public value = 10 */\n    tag_19:\n      sload(0x02)\n      dup2\n      jump\t// out\n        /* \"contracts/function.sol\":658:768  function changeState ()public  {... */\n    tag_22:\n        /* \"contracts/function.sol\":707:710  100 */\n      0x64\n        /* \"contracts/function.sol\":700:704  num1 */\n      0x00\n        /* \"contracts/function.sol\":700:710  num1 = 100 */\n      dup2\n      swap1\n      sstore\n      pop\n        /* \"contracts/function.sol\":728:734  uint b */\n      0x00\n        /* \"contracts/function.sol\":750:754  num2 */\n      sload(0x01)\n        /* \"contracts/function.sol\":746:754  b = num2 */\n      swap1\n      pop\n        /* \"contracts/function.sol\":689:768  {... */\n      pop\n        /* \"contracts/function.sol\":658:768  function changeState ()public  {... */\n      jump\t// out\n        /* \"contracts/function.sol\":565:650  function div(uint a , uint b)public pure returns (uint){... */\n    tag_26:\n        /* \"contracts/function.sol\":615:619  uint */\n      0x00\n        /* \"contracts/function.sol\":641:642  b */\n      dup2\n        /* \"contracts/function.sol\":639:640  a */\n      dup4\n        /* \"contracts/function.sol\":639:642  a/b */\n      tag_38\n      swap2\n      swap1\n      tag_39\n      jump\t// in\n    tag_38:\n        /* \"contracts/function.sol\":631:642  return  a/b */\n      swap1\n      pop\n        /* \"contracts/function.sol\":565:650  function div(uint a , uint b)public pure returns (uint){... */\n      swap3\n      swap2\n      pop\n      pop\n      jump\t// out\n        /* \"contracts/function.sol\":339:458  function substraction() public pure returns(uint){... */\n    tag_29:\n        /* \"contracts/function.sol\":383:387  uint */\n      0x00\n        /* \"contracts/function.sol\":400:406  uint a */\n      dup1\n        /* \"contracts/function.sol\":407:408  5 */\n      0x05\n        /* \"contracts/function.sol\":400:408  uint a=5 */\n      swap1\n      pop\n        /* \"contracts/function.sol\":419:425  uint b */\n      0x00\n        /* \"contracts/function.sol\":426:428  10 */\n      0x0a\n        /* \"contracts/function.sol\":419:428  uint b=10 */\n      swap1\n      pop\n        /* \"contracts/function.sol\":447:448  a */\n      dup2\n        /* \"contracts/function.sol\":445:446  b */\n      dup2\n        /* \"contracts/function.sol\":445:448  b-a */\n      tag_41\n      swap2\n      swap1\n      tag_42\n      jump\t// in\n    tag_41:\n        /* \"contracts/function.sol\":437:448  return  b-a */\n      swap3\n      pop\n      pop\n      pop\n        /* \"contracts/function.sol\":339:458  function substraction() public pure returns(uint){... */\n      swap1\n      jump\t// out\n        /* \"contracts/function.sol\":214:331  function addition() public pure {... */\n    tag_32:\n        /* \"contracts/function.sol\":257:263  uint a */\n      0x00\n        /* \"contracts/function.sol\":264:265  5 */\n      0x05\n        /* \"contracts/function.sol\":257:265  uint a=5 */\n      swap1\n      pop\n        /* \"contracts/function.sol\":276:282  uint b */\n      0x00\n        /* \"contracts/function.sol\":283:285  10 */\n      0x0a\n        /* \"contracts/function.sol\":276:285  uint b=10 */\n      swap1\n      pop\n        /* \"contracts/function.sol\":296:302  uint c */\n      0x00\n        /* \"contracts/function.sol\":320:321  b */\n      dup2\n        /* \"contracts/function.sol\":318:319  a */\n      dup4\n        /* \"contracts/function.sol\":318:321  a+b */\n      tag_44\n      swap2\n      swap1\n      tag_45\n      jump\t// in\n    tag_44:\n        /* \"contracts/function.sol\":314:321  c = a+b */\n      swap1\n      pop\n        /* \"contracts/function.sol\":246:331  {... */\n      pop\n      pop\n      pop\n        /* \"contracts/function.sol\":214:331  function addition() public pure {... */\n      jump\t// out\n        /* \"#utility.yul\":7:84   */\n    tag_46:\n        /* \"#utility.yul\":44:51   */\n      0x00\n        /* \"#utility.yul\":73:78   */\n      dup2\n        /* \"#utility.yul\":62:78   */\n      swap1\n      pop\n        /* \"#utility.yul\":7:84   */\n      swap2\n      swap1\n      pop\n      jump\t// out\n        /* \"#utility.yul\":90:208   */\n    tag_47:\n        /* \"#utility.yul\":177:201   */\n      tag_58\n        /* \"#utility.yul\":195:200   */\n      dup2\n        /* \"#utility.yul\":177:201   */\n      tag_46\n      jump\t// in\n    tag_58:\n        /* \"#utility.yul\":172:175   */\n      dup3\n        /* \"#utility.yul\":165:202   */\n      mstore\n        /* \"#utility.yul\":90:208   */\n      pop\n      pop\n      jump\t// out\n        /* \"#utility.yul\":214:436   */\n    tag_14:\n        /* \"#utility.yul\":307:311   */\n      0x00\n        /* \"#utility.yul\":345:347   */\n      0x20\n        /* \"#utility.yul\":334:343   */\n      dup3\n        /* \"#utility.yul\":330:348   */\n      add\n        /* \"#utility.yul\":322:348   */\n      swap1\n      pop\n        /* \"#utility.yul\":358:429   */\n      tag_60\n        /* \"#utility.yul\":426:427   */\n      0x00\n        /* \"#utility.yul\":415:424   */\n      dup4\n        /* \"#utility.yul\":411:428   */\n      add\n        /* \"#utility.yul\":402:408   */\n      dup5\n        /* \"#utility.yul\":358:429   */\n      tag_47\n      jump\t// in\n    tag_60:\n        /* \"#utility.yul\":214:436   */\n      swap3\n      swap2\n      pop\n      pop\n      jump\t// out\n        /* \"#utility.yul\":523:640   */\n    tag_49:\n        /* \"#utility.yul\":632:633   */\n      0x00\n        /* \"#utility.yul\":629:630   */\n      dup1\n        /* \"#utility.yul\":622:634   */\n      revert\n        /* \"#utility.yul\":769:891   */\n    tag_51:\n        /* \"#utility.yul\":842:866   */\n      tag_65\n        /* \"#utility.yul\":860:865   */\n      dup2\n        /* \"#utility.yul\":842:866   */\n      tag_46\n      jump\t// in\n    tag_65:\n        /* \"#utility.yul\":835:840   */\n      dup2\n        /* \"#utility.yul\":832:867   */\n      eq\n        /* \"#utility.yul\":822:885   */\n      tag_66\n      jumpi\n        /* \"#utility.yul\":881:882   */\n      0x00\n        /* \"#utility.yul\":878:879   */\n      dup1\n        /* \"#utility.yul\":871:883   */\n      revert\n        /* \"#utility.yul\":822:885   */\n    tag_66:\n        /* \"#utility.yul\":769:891   */\n      pop\n      jump\t// out\n        /* \"#utility.yul\":897:1036   */\n    tag_52:\n        /* \"#utility.yul\":943:948   */\n      0x00\n        /* \"#utility.yul\":981:987   */\n      dup2\n        /* \"#utility.yul\":968:988   */\n      calldataload\n        /* \"#utility.yul\":959:988   */\n      swap1\n      pop\n        /* \"#utility.yul\":997:1030   */\n      tag_68\n        /* \"#utility.yul\":1024:1029   */\n      dup2\n        /* \"#utility.yul\":997:1030   */\n      tag_51\n      jump\t// in\n    tag_68:\n        /* \"#utility.yul\":897:1036   */\n      swap3\n      swap2\n      pop\n      pop\n      jump\t// out\n        /* \"#utility.yul\":1042:1516   */\n    tag_25:\n        /* \"#utility.yul\":1110:1116   */\n      0x00\n        /* \"#utility.yul\":1118:1124   */\n      dup1\n        /* \"#utility.yul\":1167:1169   */\n      0x40\n        /* \"#utility.yul\":1155:1164   */\n      dup4\n        /* \"#utility.yul\":1146:1153   */\n      dup6\n        /* \"#utility.yul\":1142:1165   */\n      sub\n        /* \"#utility.yul\":1138:1170   */\n      slt\n        /* \"#utility.yul\":1135:1254   */\n      iszero\n      tag_70\n      jumpi\n        /* \"#utility.yul\":1173:1252   */\n      tag_71\n      tag_49\n      jump\t// in\n    tag_71:\n        /* \"#utility.yul\":1135:1254   */\n    tag_70:\n        /* \"#utility.yul\":1293:1294   */\n      0x00\n        /* \"#utility.yul\":1318:1371   */\n      tag_72\n        /* \"#utility.yul\":1363:1370   */\n      dup6\n        /* \"#utility.yul\":1354:1360   */\n      dup3\n        /* \"#utility.yul\":1343:1352   */\n      dup7\n        /* \"#utility.yul\":1339:1361   */\n      add\n        /* \"#utility.yul\":1318:1371   */\n      tag_52\n      jump\t// in\n    tag_72:\n        /* \"#utility.yul\":1308:1371   */\n      swap3\n      pop\n        /* \"#utility.yul\":1264:1381   */\n      pop\n        /* \"#utility.yul\":1420:1422   */\n      0x20\n        /* \"#utility.yul\":1446:1499   */\n      tag_73\n        /* \"#utility.yul\":1491:1498   */\n      dup6\n        /* \"#utility.yul\":1482:1488   */\n      dup3\n        /* \"#utility.yul\":1471:1480   */\n      dup7\n        /* \"#utility.yul\":1467:1489   */\n      add\n        /* \"#utility.yul\":1446:1499   */\n      tag_52\n      jump\t// in\n    tag_73:\n        /* \"#utility.yul\":1436:1499   */\n      swap2\n      pop\n        /* \"#utility.yul\":1391:1509   */\n      pop\n        /* \"#utility.yul\":1042:1516   */\n      swap3\n      pop\n      swap3\n      swap1\n      pop\n      jump\t// out\n        /* \"#utility.yul\":1522:1702   */\n    tag_53:\n        /* \"#utility.yul\":1570:1647   */\n      0x4e487b7100000000000000000000000000000000000000000000000000000000\n        /* \"#utility.yul\":1567:1568   */\n      0x00\n        /* \"#utility.yul\":1560:1648   */\n      mstore\n        /* \"#utility.yul\":1667:1671   */\n      0x11\n        /* \"#utility.yul\":1664:1665   */\n      0x04\n        /* \"#utility.yul\":1657:1672   */\n      mstore\n        /* \"#utility.yul\":1691:1695   */\n      0x24\n        /* \"#utility.yul\":1688:1689   */\n      0x00\n        /* \"#utility.yul\":1681:1696   */\n      revert\n        /* \"#utility.yul\":1708:2118   */\n    tag_35:\n        /* \"#utility.yul\":1748:1755   */\n      0x00\n        /* \"#utility.yul\":1771:1791   */\n      tag_76\n        /* \"#utility.yul\":1789:1790   */\n      dup3\n        /* \"#utility.yul\":1771:1791   */\n      tag_46\n      jump\t// in\n    tag_76:\n        /* \"#utility.yul\":1766:1791   */\n      swap2\n      pop\n        /* \"#utility.yul\":1805:1825   */\n      tag_77\n        /* \"#utility.yul\":1823:1824   */\n      dup4\n        /* \"#utility.yul\":1805:1825   */\n      tag_46\n      jump\t// in\n    tag_77:\n        /* \"#utility.yul\":1800:1825   */\n      swap3\n      pop\n        /* \"#utility.yul\":1860:1861   */\n      dup3\n        /* \"#utility.yul\":1857:1858   */\n      dup3\n        /* \"#utility.yul\":1853:1862   */\n      mul\n        /* \"#utility.yul\":1882:1912   */\n      tag_78\n        /* \"#utility.yul\":1900:1911   */\n      dup2\n        /* \"#utility.yul\":1882:1912   */\n      tag_46\n      jump\t// in\n    tag_78:\n        /* \"#utility.yul\":1871:1912   */\n      swap2\n      pop\n        /* \"#utility.yul\":2061:2062   */\n      dup3\n        /* \"#utility.yul\":2052:2059   */\n      dup3\n        /* \"#utility.yul\":2048:2063   */\n      div\n        /* \"#utility.yul\":2045:2046   */\n      dup5\n        /* \"#utility.yul\":2042:2064   */\n      eq\n        /* \"#utility.yul\":2022:2023   */\n      dup4\n        /* \"#utility.yul\":2015:2024   */\n      iszero\n        /* \"#utility.yul\":1995:2078   */\n      or\n        /* \"#utility.yul\":1972:2111   */\n      tag_79\n      jumpi\n        /* \"#utility.yul\":2091:2109   */\n      tag_80\n      tag_53\n      jump\t// in\n    tag_80:\n        /* \"#utility.yul\":1972:2111   */\n    tag_79:\n        /* \"#utility.yul\":1756:2118   */\n      pop\n        /* \"#utility.yul\":1708:2118   */\n      swap3\n      swap2\n      pop\n      pop\n      jump\t// out\n        /* \"#utility.yul\":2124:2304   */\n    tag_54:\n        /* \"#utility.yul\":2172:2249   */\n      0x4e487b7100000000000000000000000000000000000000000000000000000000\n        /* \"#utility.yul\":2169:2170   */\n      0x00\n        /* \"#utility.yul\":2162:2250   */\n      mstore\n        /* \"#utility.yul\":2269:2273   */\n      0x12\n        /* \"#utility.yul\":2266:2267   */\n      0x04\n        /* \"#utility.yul\":2259:2274   */\n      mstore\n        /* \"#utility.yul\":2293:2297   */\n      0x24\n        /* \"#utility.yul\":2290:2291   */\n      0x00\n        /* \"#utility.yul\":2283:2298   */\n      revert\n        /* \"#utility.yul\":2310:2495   */\n    tag_39:\n        /* \"#utility.yul\":2350:2351   */\n      0x00\n        /* \"#utility.yul\":2367:2387   */\n      tag_83\n        /* \"#utility.yul\":2385:2386   */\n      dup3\n        /* \"#utility.yul\":2367:2387   */\n      tag_46\n      jump\t// in\n    tag_83:\n        /* \"#utility.yul\":2362:2387   */\n      swap2\n      pop\n        /* \"#utility.yul\":2401:2421   */\n      tag_84\n        /* \"#utility.yul\":2419:2420   */\n      dup4\n        /* \"#utility.yul\":2401:2421   */\n      tag_46\n      jump\t// in\n    tag_84:\n        /* \"#utility.yul\":2396:2421   */\n      swap3\n      pop\n        /* \"#utility.yul\":2440:2441   */\n      dup3\n        /* \"#utility.yul\":2430:2465   */\n      tag_85\n      jumpi\n        /* \"#utility.yul\":2445:2463   */\n      tag_86\n      tag_54\n      jump\t// in\n    tag_86:\n        /* \"#utility.yul\":2430:2465   */\n    tag_85:\n        /* \"#utility.yul\":2487:2488   */\n      dup3\n        /* \"#utility.yul\":2484:2485   */\n      dup3\n        /* \"#utility.yul\":2480:2489   */\n      div\n        /* \"#utility.yul\":2475:2489   */\n      swap1\n      pop\n        /* \"#utility.yul\":2310:2495   */\n      swap3\n      swap2\n      pop\n      pop\n      jump\t// out\n        /* \"#utility.yul\":2501:2695   */\n    tag_42:\n        /* \"#utility.yul\":2541:2545   */\n      0x00\n        /* \"#utility.yul\":2561:2581   */\n      tag_88\n        /* \"#utility.yul\":2579:2580   */\n      dup3\n        /* \"#utility.yul\":2561:2581   */\n      tag_46\n      jump\t// in\n    tag_88:\n        /* \"#utility.yul\":2556:2581   */\n      swap2\n      pop\n        /* \"#utility.yul\":2595:2615   */\n      tag_89\n        /* \"#utility.yul\":2613:2614   */\n      dup4\n        /* \"#utility.yul\":2595:2615   */\n      tag_46\n      jump\t// in\n    tag_89:\n        /* \"#utility.yul\":2590:2615   */\n      swap3\n      pop\n        /* \"#utility.yul\":2639:2640   */\n      dup3\n        /* \"#utility.yul\":2636:2637   */\n      dup3\n        /* \"#utility.yul\":2632:2641   */\n      sub\n        /* \"#utility.yul\":2624:2641   */\n      swap1\n      pop\n        /* \"#utility.yul\":2663:2664   */\n      dup2\n        /* \"#utility.yul\":2657:2661   */\n      dup2\n        /* \"#utility.yul\":2654:2665   */\n      gt\n        /* \"#utility.yul\":2651:2688   */\n      iszero\n      tag_90\n      jumpi\n        /* \"#utility.yul\":2668:2686   */\n      tag_91\n      tag_53\n      jump\t// in\n    tag_91:\n        /* \"#utility.yul\":2651:2688   */\n    tag_90:\n        /* \"#utility.yul\":2501:2695   */\n      swap3\n      swap2\n      pop\n      pop\n      jump\t// out\n        /* \"#utility.yul\":2701:2892   */\n    tag_45:\n        /* \"#utility.yul\":2741:2744   */\n      0x00\n        /* \"#utility.yul\":2760:2780   */\n      tag_93\n        /* \"#utility.yul\":2778:2779   */\n      dup3\n        /* \"#utility.yul\":2760:2780   */\n      tag_46\n      jump\t// in\n    tag_93:\n        /* \"#utility.yul\":2755:2780   */\n      swap2\n      pop\n        /* \"#utility.yul\":2794:2814   */\n      tag_94\n        /* \"#utility.yul\":2812:2813   */\n      dup4\n        /* \"#utility.yul\":2794:2814   */\n      tag_46\n      jump\t// in\n    tag_94:\n        /* \"#utility.yul\":2789:2814   */\n      swap3\n      pop\n        /* \"#utility.yul\":2837:2838   */\n      dup3\n        /* \"#utility.yul\":2834:2835   */\n      dup3\n        /* \"#utility.yul\":2830:2839   */\n      add\n        /* \"#utility.yul\":2823:2839   */\n      swap1\n      pop\n        /* \"#utility.yul\":2858:2861   */\n      dup1\n        /* \"#utility.yul\":2855:2856   */\n      dup3\n        /* \"#utility.yul\":2852:2862   */\n      gt\n        /* \"#utility.yul\":2849:2885   */\n      iszero\n      tag_95\n      jumpi\n        /* \"#utility.yul\":2865:2883   */\n      tag_96\n      tag_53\n      jump\t// in\n    tag_96:\n        /* \"#utility.yul\":2849:2885   */\n    tag_95:\n        /* \"#utility.yul\":2701:2892   */\n      swap3\n      swap2\n      pop\n      pop\n      jump\t// out\n\n    auxdata: 0xa2646970667358221220959b242fde903baa88fed91fbe1340215c7dd86c6235a604c5033a1e0f0fbf4564736f6c634300081a0033\n}\n",
				"bytecode": {
					"linkReferences": {},
					"object": "6080604052600a5f556014600155600a6002556101256003553480156022575f80fd5b506103c1806100305f395ff3fe608060405234801561000f575f80fd5b506004361061007b575f3560e01c80638412e667116100595780638412e667146100d9578063a391c15b146100e3578063b636739814610113578063ec597128146101315761007b565b8063011285da1461007f578063276801ec1461009d5780633fa4f245146100bb575b5f80fd5b61008761013b565b60405161009491906101d5565b60405180910390f35b6100a5610150565b6040516100b291906101d5565b60405180910390f35b6100c3610156565b6040516100d091906101d5565b60405180910390f35b6100e161015c565b005b6100fd60048036038101906100f8919061021c565b61016c565b60405161010a91906101d5565b60405180910390f35b61011b610181565b60405161012891906101d5565b60405180910390f35b61013961019f565b005b5f6001545f5461014b9190610287565b905090565b60035481565b60025481565b60645f819055505f600154905050565b5f818361017991906102f5565b905092915050565b5f80600590505f600a905081816101989190610325565b9250505090565b5f600590505f600a90505f81836101b69190610358565b9050505050565b5f819050919050565b6101cf816101bd565b82525050565b5f6020820190506101e85f8301846101c6565b92915050565b5f80fd5b6101fb816101bd565b8114610205575f80fd5b50565b5f81359050610216816101f2565b92915050565b5f8060408385031215610232576102316101ee565b5b5f61023f85828601610208565b925050602061025085828601610208565b9150509250929050565b7f4e487b71000000000000000000000000000000000000000000000000000000005f52601160045260245ffd5b5f610291826101bd565b915061029c836101bd565b92508282026102aa816101bd565b915082820484148315176102c1576102c061025a565b5b5092915050565b7f4e487b71000000000000000000000000000000000000000000000000000000005f52601260045260245ffd5b5f6102ff826101bd565b915061030a836101bd565b92508261031a576103196102c8565b5b828204905092915050565b5f61032f826101bd565b915061033a836101bd565b92508282039050818111156103525761035161025a565b5b92915050565b5f610362826101bd565b915061036d836101bd565b92508282019050808211156103855761038461025a565b5b9291505056fea2646970667358221220959b242fde903baa88fed91fbe1340215c7dd86c6235a604c5033a1e0f0fbf4564736f6c634300081a0033",
					"opcodes": "PUSH1 0x80 PUSH1 0x40 MSTORE PUSH1 0xA PUSH0 SSTORE PUSH1 0x14 PUSH1 0x1 SSTORE PUSH1 0xA PUSH1 0x2 SSTORE PUSH2 0x125 PUSH1 0x3 SSTORE CALLVALUE DUP1 ISZERO PUSH1 0x22 JUMPI PUSH0 DUP1 REVERT JUMPDEST POP PUSH2 0x3C1 DUP1 PUSH2 0x30 PUSH0 CODECOPY PUSH0 RETURN INVALID PUSH1 0x80 PUSH1 0x40 MSTORE CALLVALUE DUP1 ISZERO PUSH2 0xF JUMPI PUSH0 DUP1 REVERT JUMPDEST POP PUSH1 0x4 CALLDATASIZE LT PUSH2 0x7B JUMPI PUSH0 CALLDATALOAD PUSH1 0xE0 SHR DUP1 PUSH4 0x8412E667 GT PUSH2 0x59 JUMPI DUP1 PUSH4 0x8412E667 EQ PUSH2 0xD9 JUMPI DUP1 PUSH4 0xA391C15B EQ PUSH2 0xE3 JUMPI DUP1 PUSH4 0xB6367398 EQ PUSH2 0x113 JUMPI DUP1 PUSH4 0xEC597128 EQ PUSH2 0x131 JUMPI PUSH2 0x7B JUMP JUMPDEST DUP1 PUSH4 0x11285DA EQ PUSH2 0x7F JUMPI DUP1 PUSH4 0x276801EC EQ PUSH2 0x9D JUMPI DUP1 PUSH4 0x3FA4F245 EQ PUSH2 0xBB JUMPI JUMPDEST PUSH0 DUP1 REVERT JUMPDEST PUSH2 0x87 PUSH2 0x13B JUMP JUMPDEST PUSH1 0x40 MLOAD PUSH2 0x94 SWAP2 SWAP1 PUSH2 0x1D5 JUMP JUMPDEST PUSH1 0x40 MLOAD DUP1 SWAP2 SUB SWAP1 RETURN JUMPDEST PUSH2 0xA5 PUSH2 0x150 JUMP JUMPDEST PUSH1 0x40 MLOAD PUSH2 0xB2 SWAP2 SWAP1 PUSH2 0x1D5 JUMP JUMPDEST PUSH1 0x40 MLOAD DUP1 SWAP2 SUB SWAP1 RETURN JUMPDEST PUSH2 0xC3 PUSH2 0x156 JUMP JUMPDEST PUSH1 0x40 MLOAD PUSH2 0xD0 SWAP2 SWAP1 PUSH2 0x1D5 JUMP JUMPDEST PUSH1 0x40 MLOAD DUP1 SWAP2 SUB SWAP1 RETURN JUMPDEST PUSH2 0xE1 PUSH2 0x15C JUMP JUMPDEST STOP JUMPDEST PUSH2 0xFD PUSH1 0x4 DUP1 CALLDATASIZE SUB DUP2 ADD SWAP1 PUSH2 0xF8 SWAP2 SWAP1 PUSH2 0x21C JUMP JUMPDEST PUSH2 0x16C JUMP JUMPDEST PUSH1 0x40 MLOAD PUSH2 0x10A SWAP2 SWAP1 PUSH2 0x1D5 JUMP JUMPDEST PUSH1 0x40 MLOAD DUP1 SWAP2 SUB SWAP1 RETURN JUMPDEST PUSH2 0x11B PUSH2 0x181 JUMP JUMPDEST PUSH1 0x40 MLOAD PUSH2 0x128 SWAP2 SWAP1 PUSH2 0x1D5 JUMP JUMPDEST PUSH1 0x40 MLOAD DUP1 SWAP2 SUB SWAP1 RETURN JUMPDEST PUSH2 0x139 PUSH2 0x19F JUMP JUMPDEST STOP JUMPDEST PUSH0 PUSH1 0x1 SLOAD PUSH0 SLOAD PUSH2 0x14B SWAP2 SWAP1 PUSH2 0x287 JUMP JUMPDEST SWAP1 POP SWAP1 JUMP JUMPDEST PUSH1 0x3 SLOAD DUP2 JUMP JUMPDEST PUSH1 0x2 SLOAD DUP2 JUMP JUMPDEST PUSH1 0x64 PUSH0 DUP2 SWAP1 SSTORE POP PUSH0 PUSH1 0x1 SLOAD SWAP1 POP POP JUMP JUMPDEST PUSH0 DUP2 DUP4 PUSH2 0x179 SWAP2 SWAP1 PUSH2 0x2F5 JUMP JUMPDEST SWAP1 POP SWAP3 SWAP2 POP POP JUMP JUMPDEST PUSH0 DUP1 PUSH1 0x5 SWAP1 POP PUSH0 PUSH1 0xA SWAP1 POP DUP2 DUP2 PUSH2 0x198 SWAP2 SWAP1 PUSH2 0x325 JUMP JUMPDEST SWAP3 POP POP POP SWAP1 JUMP JUMPDEST PUSH0 PUSH1 0x5 SWAP1 POP PUSH0 PUSH1 0xA SWAP1 POP PUSH0 DUP2 DUP4 PUSH2 0x1B6 SWAP2 SWAP1 PUSH2 0x358 JUMP JUMPDEST SWAP1 POP POP POP POP JUMP JUMPDEST PUSH0 DUP2 SWAP1 POP SWAP2 SWAP1 POP JUMP JUMPDEST PUSH2 0x1CF DUP2 PUSH2 0x1BD JUMP JUMPDEST DUP3 MSTORE POP POP JUMP JUMPDEST PUSH0 PUSH1 0x20 DUP3 ADD SWAP1 POP PUSH2 0x1E8 PUSH0 DUP4 ADD DUP5 PUSH2 0x1C6 JUMP JUMPDEST SWAP3 SWAP2 POP POP JUMP JUMPDEST PUSH0 DUP1 REVERT JUMPDEST PUSH2 0x1FB DUP2 PUSH2 0x1BD JUMP JUMPDEST DUP2 EQ PUSH2 0x205 JUMPI PUSH0 DUP1 REVERT JUMPDEST POP JUMP JUMPDEST PUSH0 DUP2 CALLDATALOAD SWAP1 POP PUSH2 0x216 DUP2 PUSH2 0x1F2 JUMP JUMPDEST SWAP3 SWAP2 POP POP JUMP JUMPDEST PUSH0 DUP1 PUSH1 0x40 DUP4 DUP6 SUB SLT ISZERO PUSH2 0x232 JUMPI PUSH2 0x231 PUSH2 0x1EE JUMP JUMPDEST JUMPDEST PUSH0 PUSH2 0x23F DUP6 DUP3 DUP7 ADD PUSH2 0x208 JUMP JUMPDEST SWAP3 POP POP PUSH1 0x20 PUSH2 0x250 DUP6 DUP3 DUP7 ADD PUSH2 0x208 JUMP JUMPDEST SWAP2 POP POP SWAP3 POP SWAP3 SWAP1 POP JUMP JUMPDEST PUSH32 0x4E487B7100000000000000000000000000000000000000000000000000000000 PUSH0 MSTORE PUSH1 0x11 PUSH1 0x4 MSTORE PUSH1 0x24 PUSH0 REVERT JUMPDEST PUSH0 PUSH2 0x291 DUP3 PUSH2 0x1BD JUMP JUMPDEST SWAP2 POP PUSH2 0x29C DUP4 PUSH2 0x1BD JUMP JUMPDEST SWAP3 POP DUP3 DUP3 MUL PUSH2 0x2AA DUP2 PUSH2 0x1BD JUMP JUMPDEST SWAP2 POP DUP3 DUP3 DIV DUP5 EQ DUP4 ISZERO OR PUSH2 0x2C1 JUMPI PUSH2 0x2C0 PUSH2 0x25A JUMP JUMPDEST JUMPDEST POP SWAP3 SWAP2 POP POP JUMP JUMPDEST PUSH32 0x4E487B7100000000000000000000000000000000000000000000000000000000 PUSH0 MSTORE PUSH1 0x12 PUSH1 0x4 MSTORE PUSH1 0x24 PUSH0 REVERT JUMPDEST PUSH0 PUSH2 0x2FF DUP3 PUSH2 0x1BD JUMP JUMPDEST SWAP2 POP PUSH2 0x30A DUP4 PUSH2 0x1BD JUMP JUMPDEST SWAP3 POP DUP3 PUSH2 0x31A JUMPI PUSH2 0x319 PUSH2 0x2C8 JUMP JUMPDEST JUMPDEST DUP3 DUP3 DIV SWAP1 POP SWAP3 SWAP2 POP POP JUMP JUMPDEST PUSH0 PUSH2 0x32F DUP3 PUSH2 0x1BD JUMP JUMPDEST SWAP2 POP PUSH2 0x33A DUP4 PUSH2 0x1BD JUMP JUMPDEST SWAP3 POP DUP3 DUP3 SUB SWAP1 POP DUP2 DUP2 GT ISZERO PUSH2 0x352 JUMPI PUSH2 0x351 PUSH2 0x25A JUMP JUMPDEST JUMPDEST SWAP3 SWAP2 POP POP JUMP JUMPDEST PUSH0 PUSH2 0x362 DUP3 PUSH2 0x1BD JUMP JUMPDEST SWAP2 POP PUSH2 0x36D DUP4 PUSH2 0x1BD JUMP JUMPDEST SWAP3 POP DUP3 DUP3 ADD SWAP1 POP DUP1 DUP3 GT ISZERO PUSH2 0x385 JUMPI PUSH2 0x384 PUSH2 0x25A JUMP JUMPDEST JUMPDEST SWAP3 SWAP2 POP POP JUMP INVALID LOG2 PUSH5 0x6970667358 0x22 SLT KECCAK256 SWAP6 SWAP12 0x24 0x2F 0xDE SWAP1 EXTCODESIZE 0xAA DUP9 INVALID 0xD9 0x1F 0xBE SGT BLOCKHASH 0x21 TLOAD PUSH30 0xD86C6235A604C5033A1E0F0FBF4564736F6C634300081A00330000000000 "
				},
				"gasEstimates": {
					"creation": {
						"codeDepositCost": "192200",
						"executionCost": "88659",
						"totalCost": "280859"
					},
					"external": {
						"addition()": "infinite",
						"changeState()": "24368",
						"div(uint256,uint256)": "infinite",
						"multiplication()": "infinite",
						"randomValue()": "2448",
						"substraction()": "infinite",
						"value()": "2470"
					}
				},
				"methodIdentifiers": {
					"addition()": "ec597128",
					"changeState()": "8412e667",
					"div(uint256,uint256)": "a391c15b",
					"multiplication()": "011285da",
					"randomValue()": "276801ec",
					"substraction()": "b6367398",
					"value()": "3fa4f245"
				}
			},
			"storageLayout": {
				"storage": [
					{
						"astId": 4,
						"contract": "contracts/function.sol:Function",
						"label": "num1",
						"offset": 0,
						"slot": "0",
						"type": "t_uint256"
					},
					{
						"astId": 7,
						"contract": "contracts/function.sol:Function",
						"label": "num2",
						"offset": 0,
						"slot": "1",
						"type": "t_uint256"
					},
					{
						"astId": 10,
						"contract": "contracts/function.sol:Function",
						"label": "value",
						"offset": 0,
						"slot": "2",
						"type": "t_uint256"
					},
					{
						"astId": 13,
						"contract": "contracts/function.sol:Function",
						"label": "randomValue",
						"offset": 0,
						"slot": "3",
						"type": "t_uint256"
					}
				],
				"types": {
					"t_uint256": {
						"encoding": "inplace",
						"label": "uint256",
						"numberOfBytes": "32"
					}
				}
			},
			"userdoc": {
				"kind": "user",
				"methods": {},
				"version": 1
			}
		}
	}
}